{
  "contractName": "AlloyChain",
  "abi": [
    {
      "constant": true,
      "inputs": [],
      "name": "minter",
      "outputs": [
        {
          "name": "",
          "type": "address"
        }
      ],
      "payable": false,
      "stateMutability": "view",
      "type": "function"
    },
    {
      "inputs": [],
      "payable": false,
      "stateMutability": "nonpayable",
      "type": "constructor"
    },
    {
      "payable": true,
      "stateMutability": "payable",
      "type": "fallback"
    },
    {
      "constant": false,
      "inputs": [
        {
          "name": "name",
          "type": "string"
        },
        {
          "name": "aadharId",
          "type": "uint256"
        },
        {
          "name": "phoneNum",
          "type": "uint256"
        }
      ],
      "name": "newUser",
      "outputs": [
        {
          "name": "userId",
          "type": "uint256"
        }
      ],
      "payable": false,
      "stateMutability": "nonpayable",
      "type": "function"
    },
    {
      "constant": true,
      "inputs": [
        {
          "name": "_index",
          "type": "uint256"
        }
      ],
      "name": "getUserByIndex",
      "outputs": [
        {
          "name": "walletId",
          "type": "address"
        },
        {
          "name": "name",
          "type": "string"
        },
        {
          "name": "aadharId",
          "type": "uint256"
        }
      ],
      "payable": false,
      "stateMutability": "view",
      "type": "function"
    },
    {
      "constant": true,
      "inputs": [
        {
          "name": "_walletId",
          "type": "address"
        }
      ],
      "name": "getUserByWalletId",
      "outputs": [
        {
          "name": "walletId",
          "type": "address"
        },
        {
          "name": "name",
          "type": "string"
        },
        {
          "name": "aadharId",
          "type": "uint256"
        }
      ],
      "payable": false,
      "stateMutability": "view",
      "type": "function"
    },
    {
      "constant": true,
      "inputs": [],
      "name": "getUsersCount",
      "outputs": [
        {
          "name": "UsersCount",
          "type": "uint256"
        }
      ],
      "payable": false,
      "stateMutability": "view",
      "type": "function"
    },
    {
      "constant": false,
      "inputs": [
        {
          "name": "ethers",
          "type": "uint256"
        },
        {
          "name": "duration",
          "type": "uint256"
        },
        {
          "name": "mortgage",
          "type": "string"
        }
      ],
      "name": "newRequirement",
      "outputs": [
        {
          "name": "requirementId",
          "type": "uint256"
        }
      ],
      "payable": false,
      "stateMutability": "nonpayable",
      "type": "function"
    },
    {
      "constant": true,
      "inputs": [
        {
          "name": "walletId",
          "type": "address"
        }
      ],
      "name": "getRequirementsCount",
      "outputs": [
        {
          "name": "requirementId",
          "type": "uint256"
        }
      ],
      "payable": false,
      "stateMutability": "view",
      "type": "function"
    },
    {
      "constant": true,
      "inputs": [],
      "name": "getRequirementsCount",
      "outputs": [
        {
          "name": "requirementId",
          "type": "uint256"
        }
      ],
      "payable": false,
      "stateMutability": "view",
      "type": "function"
    },
    {
      "constant": true,
      "inputs": [
        {
          "name": "requirementId",
          "type": "uint256"
        }
      ],
      "name": "getRequirement",
      "outputs": [
        {
          "name": "borrowerWalletId",
          "type": "address"
        },
        {
          "name": "ethers",
          "type": "uint256"
        },
        {
          "name": "duration",
          "type": "uint256"
        },
        {
          "name": "mortgage",
          "type": "string"
        },
        {
          "name": "proposalCount",
          "type": "uint256"
        }
      ],
      "payable": false,
      "stateMutability": "view",
      "type": "function"
    },
    {
      "constant": true,
      "inputs": [
        {
          "name": "walletId",
          "type": "address"
        },
        {
          "name": "requirementId",
          "type": "uint256"
        }
      ],
      "name": "getRequirement",
      "outputs": [
        {
          "name": "borrowerWalletId",
          "type": "address"
        },
        {
          "name": "ethers",
          "type": "uint256"
        },
        {
          "name": "duration",
          "type": "uint256"
        },
        {
          "name": "mortgage",
          "type": "string"
        },
        {
          "name": "proposalCount",
          "type": "uint256"
        }
      ],
      "payable": false,
      "stateMutability": "view",
      "type": "function"
    },
    {
      "constant": true,
      "inputs": [
        {
          "name": "requirementId",
          "type": "uint256"
        }
      ],
      "name": "getRequirementStatus",
      "outputs": [
        {
          "name": "requirementStatus",
          "type": "uint256"
        }
      ],
      "payable": false,
      "stateMutability": "view",
      "type": "function"
    },
    {
      "constant": true,
      "inputs": [
        {
          "name": "walletId",
          "type": "address"
        },
        {
          "name": "requirementId",
          "type": "uint256"
        }
      ],
      "name": "getRequirementStatus",
      "outputs": [
        {
          "name": "requirementStatus",
          "type": "uint256"
        }
      ],
      "payable": false,
      "stateMutability": "view",
      "type": "function"
    },
    {
      "constant": false,
      "inputs": [
        {
          "name": "walletId",
          "type": "address"
        },
        {
          "name": "requirementId",
          "type": "uint256"
        },
        {
          "name": "startTime",
          "type": "uint256"
        },
        {
          "name": "endTime",
          "type": "uint256"
        },
        {
          "name": "interestEthers",
          "type": "uint256"
        }
      ],
      "name": "newProposal",
      "outputs": [
        {
          "name": "proposalId_user",
          "type": "uint256"
        },
        {
          "name": "proposalId_requirement",
          "type": "uint256"
        }
      ],
      "payable": false,
      "stateMutability": "nonpayable",
      "type": "function"
    },
    {
      "constant": false,
      "inputs": [
        {
          "name": "requirementId",
          "type": "uint256"
        },
        {
          "name": "startTime",
          "type": "uint256"
        },
        {
          "name": "endTime",
          "type": "uint256"
        },
        {
          "name": "interestEthers",
          "type": "uint256"
        }
      ],
      "name": "newProposal",
      "outputs": [
        {
          "name": "proposalId_user",
          "type": "uint256"
        },
        {
          "name": "proposalId_requirement",
          "type": "uint256"
        }
      ],
      "payable": false,
      "stateMutability": "nonpayable",
      "type": "function"
    },
    {
      "constant": true,
      "inputs": [
        {
          "name": "walletId",
          "type": "address"
        },
        {
          "name": "requirementId",
          "type": "uint256"
        }
      ],
      "name": "getProposalCount",
      "outputs": [
        {
          "name": "proposalCount",
          "type": "uint256"
        }
      ],
      "payable": false,
      "stateMutability": "view",
      "type": "function"
    },
    {
      "constant": true,
      "inputs": [
        {
          "name": "requirementId",
          "type": "uint256"
        }
      ],
      "name": "getProposalCount",
      "outputs": [
        {
          "name": "proposalCount",
          "type": "uint256"
        }
      ],
      "payable": false,
      "stateMutability": "view",
      "type": "function"
    },
    {
      "constant": true,
      "inputs": [
        {
          "name": "requirementId",
          "type": "uint256"
        },
        {
          "name": "proposalId",
          "type": "uint256"
        }
      ],
      "name": "getProposal",
      "outputs": [
        {
          "name": "lenderWalletId",
          "type": "address"
        },
        {
          "name": "startTime",
          "type": "uint256"
        },
        {
          "name": "endTime",
          "type": "uint256"
        },
        {
          "name": "interestEthers",
          "type": "uint256"
        }
      ],
      "payable": false,
      "stateMutability": "view",
      "type": "function"
    },
    {
      "constant": true,
      "inputs": [
        {
          "name": "walletId",
          "type": "address"
        },
        {
          "name": "requirementId",
          "type": "uint256"
        },
        {
          "name": "proposalId",
          "type": "uint256"
        }
      ],
      "name": "getProposal",
      "outputs": [
        {
          "name": "lenderWalletId",
          "type": "address"
        },
        {
          "name": "startTime",
          "type": "uint256"
        },
        {
          "name": "endTime",
          "type": "uint256"
        },
        {
          "name": "interestEthers",
          "type": "uint256"
        }
      ],
      "payable": false,
      "stateMutability": "view",
      "type": "function"
    },
    {
      "constant": false,
      "inputs": [
        {
          "name": "requirementId",
          "type": "uint256"
        },
        {
          "name": "proposalId",
          "type": "uint256"
        }
      ],
      "name": "acceptProposal",
      "outputs": [],
      "payable": false,
      "stateMutability": "nonpayable",
      "type": "function"
    },
    {
      "constant": false,
      "inputs": [
        {
          "name": "requirementId",
          "type": "uint256"
        },
        {
          "name": "proposalId",
          "type": "uint256"
        }
      ],
      "name": "repay",
      "outputs": [],
      "payable": false,
      "stateMutability": "nonpayable",
      "type": "function"
    }
  ],
  "bytecode": "0x60806040526000600255600060055534801561001a57600080fd5b50336000806101000a81548173ffffffffffffffffffffffffffffffffffffffff021916908373ffffffffffffffffffffffffffffffffffffffff1602179055506128cd8061006a6000396000f300608060405260043610610112576000357c0100000000000000000000000000000000000000000000000000000000900463ffffffff16806307546172146101775780632242db58146101a2578063462fa9f2146101df57806346f343441461021d5780634936c0f61461025a5780635645fdd7146102975780635c1e644d146102c257806365e0f6cd1461030057806382a0af091461034057806395d35f831461037d578063968efbd1146103bc578063a4a1e263146103f9578063a9bc7bb514610424578063aba2100914610461578063c51577db146104a1578063d8aed145146104e2578063e1e1d5ca1461050b578063e6c7f47914610534578063fac9e60b14610571578063ff5d32fe146105b2575b3460016000600360003373ffffffffffffffffffffffffffffffffffffffff1673ffffffffffffffffffffffffffffffffffffffff16815260200190815260200160002054815260200190815260200160002060040160008282540192505081905550005b34801561018357600080fd5b5061018c6105f1565b604051610199919061264c565b60405180910390f35b3480156101ae57600080fd5b506101c960048036036101c491908101906124c9565b610616565b6040516101d69190612744565b60405180910390f35b3480156101eb57600080fd5b5061020660048036036102019190810190612595565b610636565b60405161021492919061275f565b60405180910390f35b34801561022957600080fd5b50610244600480360361023f9190810190612337565b610938565b6040516102519190612744565b60405180910390f35b34801561026657600080fd5b50610281600480360361027c91908101906124c9565b610997565b60405161028e9190612744565b60405180910390f35b3480156102a357600080fd5b506102ac6109b7565b6040516102b99190612744565b60405180910390f35b3480156102ce57600080fd5b506102e960048036036102e491908101906123eb565b6109c1565b6040516102f792919061275f565b60405180910390f35b34801561030c57600080fd5b506103276004803603610322919081019061239c565b610dbd565b60405161033794939291906126ff565b60405180910390f35b34801561034c57600080fd5b506103676004803603610362919081019061252e565b610fec565b6040516103749190612744565b60405180910390f35b34801561038957600080fd5b506103a4600480360361039f9190810190612337565b611336565b6040516103b393929190612667565b60405180910390f35b3480156103c857600080fd5b506103e360048036036103de9190810190612462565b61148d565b6040516103f09190612744565b60405180910390f35b34801561040557600080fd5b5061040e61163d565b60405161041b9190612744565b60405180910390f35b34801561043057600080fd5b5061044b60048036036104469190810190612360565b611647565b6040516104589190612744565b60405180910390f35b34801561046d57600080fd5b50610488600480360361048391908101906124f2565b6116bb565b60405161049894939291906126ff565b60405180910390f35b3480156104ad57600080fd5b506104c860048036036104c391908101906124c9565b61179e565b6040516104d99594939291906126a5565b60405180910390f35b3480156104ee57600080fd5b50610509600480360361050491908101906124f2565b6118e8565b005b34801561051757600080fd5b50610532600480360361052d91908101906124f2565b611a3e565b005b34801561054057600080fd5b5061055b60048036036105569190810190612360565b611d1c565b6040516105689190612744565b60405180910390f35b34801561057d57600080fd5b5061059860048036036105939190810190612360565b611d90565b6040516105a99594939291906126a5565b60405180910390f35b3480156105be57600080fd5b506105d960048036036105d491908101906124c9565b61207a565b6040516105e893929190612667565b60405180910390f35b6000809054906101000a900473ffffffffffffffffffffffffffffffffffffffff1681565b600060046000838152602001908152602001600020600701549050919050565b6000806000338160000160006101000a81548173ffffffffffffffffffffffffffffffffffffffff021916908373ffffffffffffffffffffffffffffffffffffffff16021790555085816001018190555084816002018190555083816003018190555060016000600360003373ffffffffffffffffffffffffffffffffffffffff1673ffffffffffffffffffffffffffffffffffffffff168152602001908152602001600020548152602001908152602001600020600701600081548092919060010191905055508060016000600360003373ffffffffffffffffffffffffffffffffffffffff1673ffffffffffffffffffffffffffffffffffffffff168152602001908152602001600020548152602001908152602001600020600801600060016000600360003373ffffffffffffffffffffffffffffffffffffffff1673ffffffffffffffffffffffffffffffffffffffff1681526020019081526020016000205481526020019081526020016000206007015481526020019081526020016000206000820160009054906101000a900473ffffffffffffffffffffffffffffffffffffffff168160000160006101000a81548173ffffffffffffffffffffffffffffffffffffffff021916908373ffffffffffffffffffffffffffffffffffffffff160217905550600182015481600101556002820154816002015560038201548160030155905050600460008881526020019081526020016000206005016000815480929190600101919050555080600460008981526020019081526020016000206006016000600460008b81526020019081526020016000206005015481526020019081526020016000206000820160009054906101000a900473ffffffffffffffffffffffffffffffffffffffff168160000160006101000a81548173ffffffffffffffffffffffffffffffffffffffff021916908373ffffffffffffffffffffffffffffffffffffffff1602179055506001820154816001015560028201548160020155600382015481600301559050505094509492505050565b600060016000600360008573ffffffffffffffffffffffffffffffffffffffff1673ffffffffffffffffffffffffffffffffffffffff168152602001908152602001600020548152602001908152602001600020600501549050919050565b600060046000838152602001908152602001600020600501549050919050565b6000600554905090565b6000806000338160000160006101000a81548173ffffffffffffffffffffffffffffffffffffffff021916908373ffffffffffffffffffffffffffffffffffffffff16021790555085816001018190555084816002018190555083816003018190555060016000600360003373ffffffffffffffffffffffffffffffffffffffff1673ffffffffffffffffffffffffffffffffffffffff168152602001908152602001600020548152602001908152602001600020600701600081548092919060010191905055508060016000600360003373ffffffffffffffffffffffffffffffffffffffff1673ffffffffffffffffffffffffffffffffffffffff168152602001908152602001600020548152602001908152602001600020600801600060016000600360003373ffffffffffffffffffffffffffffffffffffffff1673ffffffffffffffffffffffffffffffffffffffff1681526020019081526020016000205481526020019081526020016000206007015481526020019081526020016000206000820160009054906101000a900473ffffffffffffffffffffffffffffffffffffffff168160000160006101000a81548173ffffffffffffffffffffffffffffffffffffffff021916908373ffffffffffffffffffffffffffffffffffffffff16021790555060018201548160010155600282015481600201556003820154816003015590505060016000600360008b73ffffffffffffffffffffffffffffffffffffffff1673ffffffffffffffffffffffffffffffffffffffff1681526020019081526020016000205481526020019081526020016000206006016000888152602001908152602001600020600501600081548092919060010191905055508060016000600360008c73ffffffffffffffffffffffffffffffffffffffff1673ffffffffffffffffffffffffffffffffffffffff1681526020019081526020016000205481526020019081526020016000206006016000898152602001908152602001600020600601600060016000600360008e73ffffffffffffffffffffffffffffffffffffffff1673ffffffffffffffffffffffffffffffffffffffff16815260200190815260200160002054815260200190815260200160002060060160008b81526020019081526020016000206005015481526020019081526020016000206000820160009054906101000a900473ffffffffffffffffffffffffffffffffffffffff168160000160006101000a81548173ffffffffffffffffffffffffffffffffffffffff021916908373ffffffffffffffffffffffffffffffffffffffff160217905550600182015481600101556002820154816002015560038201548160030155905050509550959350505050565b60008060008060016000600360008a73ffffffffffffffffffffffffffffffffffffffff1673ffffffffffffffffffffffffffffffffffffffff1681526020019081526020016000205481526020019081526020016000206006016000878152602001908152602001600020600601600086815260200190815260200160002060000160009054906101000a900473ffffffffffffffffffffffffffffffffffffffff1660016000600360008b73ffffffffffffffffffffffffffffffffffffffff1673ffffffffffffffffffffffffffffffffffffffff168152602001908152602001600020548152602001908152602001600020600601600088815260200190815260200160002060060160008781526020019081526020016000206001015460016000600360008c73ffffffffffffffffffffffffffffffffffffffff1673ffffffffffffffffffffffffffffffffffffffff168152602001908152602001600020548152602001908152602001600020600601600089815260200190815260200160002060060160008881526020019081526020016000206002015460016000600360008d73ffffffffffffffffffffffffffffffffffffffff1673ffffffffffffffffffffffffffffffffffffffff16815260200190815260200160002054815260200190815260200160002060060160008a8152602001908152602001600020600601600089815260200190815260200160002060030154935093509350935093509350935093565b600080338160000160006101000a81548173ffffffffffffffffffffffffffffffffffffffff021916908373ffffffffffffffffffffffffffffffffffffffff1602179055508481600101819055508381600201819055508281600301908051906020019061105c92919061218d565b50600560008154809291906001019190505550806004600060055481526020019081526020016000206000820160009054906101000a900473ffffffffffffffffffffffffffffffffffffffff168160000160006101000a81548173ffffffffffffffffffffffffffffffffffffffff021916908373ffffffffffffffffffffffffffffffffffffffff16021790555060018201548160010155600282015481600201556003820181600301908054600181600116156101000203166002900461112792919061220d565b5060048201548160040155600582015481600501556007820154816007015590505060016000600360003373ffffffffffffffffffffffffffffffffffffffff1673ffffffffffffffffffffffffffffffffffffffff168152602001908152602001600020548152602001908152602001600020600501600081548092919060010191905055508060016000600360003373ffffffffffffffffffffffffffffffffffffffff1673ffffffffffffffffffffffffffffffffffffffff168152602001908152602001600020548152602001908152602001600020600601600060016000600360003373ffffffffffffffffffffffffffffffffffffffff1673ffffffffffffffffffffffffffffffffffffffff1681526020019081526020016000205481526020019081526020016000206005015481526020019081526020016000206000820160009054906101000a900473ffffffffffffffffffffffffffffffffffffffff168160000160006101000a81548173ffffffffffffffffffffffffffffffffffffffff021916908373ffffffffffffffffffffffffffffffffffffffff16021790555060018201548160010155600282015481600201556003820181600301908054600181600116156101000203166002900461130c92919061220d565b50600482015481600401556005820154816005015560078201548160070155905050509392505050565b60006060600080600360008673ffffffffffffffffffffffffffffffffffffffff1673ffffffffffffffffffffffffffffffffffffffff1681526020019081526020016000205490506001600082815260200190815260200160002060000160009054906101000a900473ffffffffffffffffffffffffffffffffffffffff16600160008381526020019081526020016000206001016001600084815260200190815260200160002060020154818054600181600116156101000203166002900480601f0160208091040260200160405190810160405280929190818152602001828054600181600116156101000203166002900480156114785780601f1061144d57610100808354040283529160200191611478565b820191906000526020600020905b81548152906001019060200180831161145b57829003601f168201915b50505050509150935093509350509193909250565b600080600260008154809291906001019190505550338160000160006101000a81548173ffffffffffffffffffffffffffffffffffffffff021916908373ffffffffffffffffffffffffffffffffffffffff160217905550848160010190805190602001906114fd92919061218d565b50838160020181905550828160030181905550806001600060025481526020019081526020016000206000820160009054906101000a900473ffffffffffffffffffffffffffffffffffffffff168160000160006101000a81548173ffffffffffffffffffffffffffffffffffffffff021916908373ffffffffffffffffffffffffffffffffffffffff160217905550600182018160010190805460018160011615610100020316600290046115b492919061220d565b506002820154816002015560038201548160030155600482015481600401556005820154816005015560078201548160070155905050600254600360003373ffffffffffffffffffffffffffffffffffffffff1673ffffffffffffffffffffffffffffffffffffffff168152602001908152602001600020819055506002549150509392505050565b6000600254905090565b600060016000600360008673ffffffffffffffffffffffffffffffffffffffff1673ffffffffffffffffffffffffffffffffffffffff168152602001908152602001600020548152602001908152602001600020600601600083815260200190815260200160002060050154905092915050565b60008060008060046000878152602001908152602001600020600601600086815260200190815260200160002060000160009054906101000a900473ffffffffffffffffffffffffffffffffffffffff166004600088815260200190815260200160002060060160008781526020019081526020016000206001015460046000898152602001908152602001600020600601600088815260200190815260200160002060020154600460008a8152602001908152602001600020600601600089815260200190815260200160002060030154935093509350935092959194509250565b6000806000606060006004600087815260200190815260200160002060000160009054906101000a900473ffffffffffffffffffffffffffffffffffffffff1660046000888152602001908152602001600020600101546004600089815260200190815260200160002060020154600460008a8152602001908152602001600020600301600460008b815260200190815260200160002060050154818054600181600116156101000203166002900480601f0160208091040260200160405190810160405280929190818152602001828054600181600116156101000203166002900480156118ce5780601f106118a3576101008083540402835291602001916118ce565b820191906000526020600020905b8154815290600101906020018083116118b157829003601f168201915b505050505091509450945094509450945091939590929450565b60016000600360003373ffffffffffffffffffffffffffffffffffffffff1673ffffffffffffffffffffffffffffffffffffffff1681526020019081526020016000205481526020019081526020016000206006016000838152602001908152602001600020600601600082815260200190815260200160002060000160009054906101000a900473ffffffffffffffffffffffffffffffffffffffff1673ffffffffffffffffffffffffffffffffffffffff166108fc349081150290604051600060405180830381858888f193505050501580156119cb573d6000803e3d6000fd5b506001806000600360003373ffffffffffffffffffffffffffffffffffffffff1673ffffffffffffffffffffffffffffffffffffffff1681526020019081526020016000205481526020019081526020016000206006016000848152602001908152602001600020600701819055505050565b3373ffffffffffffffffffffffffffffffffffffffff1660016000600360003373ffffffffffffffffffffffffffffffffffffffff1673ffffffffffffffffffffffffffffffffffffffff168152602001908152602001600020548152602001908152602001600020600601600084815260200190815260200160002060000160009054906101000a900473ffffffffffffffffffffffffffffffffffffffff1673ffffffffffffffffffffffffffffffffffffffff16148015611b6b575060016000600360003373ffffffffffffffffffffffffffffffffffffffff1673ffffffffffffffffffffffffffffffffffffffff1681526020019081526020016000205481526020019081526020016000206006016000838152602001908152602001600020600501548111155b15611d18578060016000600360003373ffffffffffffffffffffffffffffffffffffffff1673ffffffffffffffffffffffffffffffffffffffff16815260200190815260200160002054815260200190815260200160002060060160008481526020019081526020016000206004018190555060016000600360003373ffffffffffffffffffffffffffffffffffffffff1673ffffffffffffffffffffffffffffffffffffffff168152602001908152602001600020548152602001908152602001600020600601600083815260200190815260200160002060000160009054906101000a900473ffffffffffffffffffffffffffffffffffffffff1673ffffffffffffffffffffffffffffffffffffffff166108fc60016000600360003373ffffffffffffffffffffffffffffffffffffffff1673ffffffffffffffffffffffffffffffffffffffff1681526020019081526020016000205481526020019081526020016000206006016000858152602001908152602001600020600101549081150290604051600060405180830381858888f19350505050158015611d16573d6000803e3d6000fd5b505b5050565b600060016000600360008673ffffffffffffffffffffffffffffffffffffffff1673ffffffffffffffffffffffffffffffffffffffff168152602001908152602001600020548152602001908152602001600020600601600083815260200190815260200160002060070154905092915050565b60008060006060600060016000600360008a73ffffffffffffffffffffffffffffffffffffffff1673ffffffffffffffffffffffffffffffffffffffff168152602001908152602001600020548152602001908152602001600020600601600087815260200190815260200160002060000160009054906101000a900473ffffffffffffffffffffffffffffffffffffffff1660016000600360008b73ffffffffffffffffffffffffffffffffffffffff1673ffffffffffffffffffffffffffffffffffffffff16815260200190815260200160002054815260200190815260200160002060060160008881526020019081526020016000206001015460016000600360008c73ffffffffffffffffffffffffffffffffffffffff1673ffffffffffffffffffffffffffffffffffffffff16815260200190815260200160002054815260200190815260200160002060060160008981526020019081526020016000206002015460016000600360008d73ffffffffffffffffffffffffffffffffffffffff1673ffffffffffffffffffffffffffffffffffffffff16815260200190815260200160002054815260200190815260200160002060060160008a815260200190815260200160002060030160016000600360008e73ffffffffffffffffffffffffffffffffffffffff1673ffffffffffffffffffffffffffffffffffffffff16815260200190815260200160002054815260200190815260200160002060060160008b815260200190815260200160002060050154818054600181600116156101000203166002900480601f01602080910402602001604051908101604052809291908181526020018280546001816001161561010002031660029004801561205f5780601f106120345761010080835404028352916020019161205f565b820191906000526020600020905b81548152906001019060200180831161204257829003601f168201915b50505050509150945094509450945094509295509295909350565b6000606060006001600085815260200190815260200160002060000160009054906101000a900473ffffffffffffffffffffffffffffffffffffffff16600160008681526020019081526020016000206001016001600087815260200190815260200160002060020154818054600181600116156101000203166002900480601f0160208091040260200160405190810160405280929190818152602001828054600181600116156101000203166002900480156121795780601f1061214e57610100808354040283529160200191612179565b820191906000526020600020905b81548152906001019060200180831161215c57829003601f168201915b505050505091509250925092509193909250565b828054600181600116156101000203166002900490600052602060002090601f016020900481019282601f106121ce57805160ff19168380011785556121fc565b828001600101855582156121fc579182015b828111156121fb5782518255916020019190600101906121e0565b5b5090506122099190612294565b5090565b828054600181600116156101000203166002900490600052602060002090601f016020900481019282601f106122465780548555612283565b8280016001018555821561228357600052602060002091601f016020900482015b82811115612282578254825591600101919060010190612267565b5b5090506122909190612294565b5090565b6122b691905b808211156122b257600081600090555060010161229a565b5090565b90565b60006122c58235612816565b905092915050565b600082601f83011215156122e057600080fd5b81356122f36122ee826127b5565b612788565b9150808252602083016020830185838301111561230f57600080fd5b61231a838284612840565b50505092915050565b600061232f8235612836565b905092915050565b60006020828403121561234957600080fd5b6000612357848285016122b9565b91505092915050565b6000806040838503121561237357600080fd5b6000612381858286016122b9565b925050602061239285828601612323565b9150509250929050565b6000806000606084860312156123b157600080fd5b60006123bf868287016122b9565b93505060206123d086828701612323565b92505060406123e186828701612323565b9150509250925092565b600080600080600060a0868803121561240357600080fd5b6000612411888289016122b9565b955050602061242288828901612323565b945050604061243388828901612323565b935050606061244488828901612323565b925050608061245588828901612323565b9150509295509295909350565b60008060006060848603121561247757600080fd5b600084013567ffffffffffffffff81111561249157600080fd5b61249d868287016122cd565b93505060206124ae86828701612323565b92505060406124bf86828701612323565b9150509250925092565b6000602082840312156124db57600080fd5b60006124e984828501612323565b91505092915050565b6000806040838503121561250557600080fd5b600061251385828601612323565b925050602061252485828601612323565b9150509250929050565b60008060006060848603121561254357600080fd5b600061255186828701612323565b935050602061256286828701612323565b925050604084013567ffffffffffffffff81111561257f57600080fd5b61258b868287016122cd565b9150509250925092565b600080600080608085870312156125ab57600080fd5b60006125b987828801612323565b94505060206125ca87828801612323565b93505060406125db87828801612323565b92505060606125ec87828801612323565b91505092959194509250565b612601816127ec565b82525050565b6000612612826127e1565b80845261262681602086016020860161284f565b61262f81612882565b602085010191505092915050565b6126468161280c565b82525050565b600060208201905061266160008301846125f8565b92915050565b600060608201905061267c60008301866125f8565b818103602083015261268e8185612607565b905061269d604083018461263d565b949350505050565b600060a0820190506126ba60008301886125f8565b6126c7602083018761263d565b6126d4604083018661263d565b81810360608301526126e68185612607565b90506126f5608083018461263d565b9695505050505050565b600060808201905061271460008301876125f8565b612721602083018661263d565b61272e604083018561263d565b61273b606083018461263d565b95945050505050565b6000602082019050612759600083018461263d565b92915050565b6000604082019050612774600083018561263d565b612781602083018461263d565b9392505050565b6000604051905081810181811067ffffffffffffffff821117156127ab57600080fd5b8060405250919050565b600067ffffffffffffffff8211156127cc57600080fd5b601f19601f8301169050602081019050919050565b600081519050919050565b600073ffffffffffffffffffffffffffffffffffffffff82169050919050565b6000819050919050565b600073ffffffffffffffffffffffffffffffffffffffff82169050919050565b6000819050919050565b82818337600083830152505050565b60005b8381101561286d578082015181840152602081019050612852565b8381111561287c576000848401525b50505050565b6000601f19601f83011690509190505600a265627a7a7230582038f2a37e4146d81ef721e4db2a994fb8b38d808699623e4d08240543b2d0908d6c6578706572696d656e74616cf50037",
  "source": " pragma solidity ^0.4.23;\r\npragma experimental ABIEncoderV2;\r\ncontract AlloyChain {\r\n    \r\n    address public minter;\r\n    constructor() public {\r\n        minter = msg.sender;\r\n    }\r\n    struct User {\r\n        address walletId;\r\n        string name;\r\n        uint aadharId;\r\n        uint phoneNum;\r\n        uint ethers; // ethers in their account\r\n        uint requirementCount;\r\n        mapping (uint => Requirement) requirements; // requirements posted by the user\r\n        uint proposalCount;\r\n        mapping (uint => Proposal) proposals; // proposals by the user\r\n    }\r\n    struct Requirement {\r\n        address borrowerWalletId;\r\n        uint ethers;\r\n        uint duration; // in milliseconds\r\n        string mortgage;\r\n        uint proposalId; // Accepted proposalId ie Index, only borrower can set this\r\n        uint proposalCount; // Number of proposals received\r\n        mapping (uint => Proposal) proposals;\r\n        uint requirementStatus; //0 - not payed, 1 = payed\r\n    }\r\n    struct Proposal {\r\n        // uint requirementId; // index to requirement in allRequirements\r\n        address lenderWalletId;\r\n        uint startTime;\r\n        uint endTime;\r\n        uint interestEthers; //PM - SI\r\n    }\r\n    function () payable{ //fallback method\r\n        allUsers[users_walletId[msg.sender]].ethers += msg.value; // adds ethers to the user account;\r\n    }\r\n    mapping (uint => User) allUsers;\r\n    uint userCount = 0;\r\n    mapping (address => uint256) users_walletId;\r\n    \r\n    mapping (uint => Requirement) allRequirements;\r\n    uint requirementCount = 0;\r\n    \r\n    /*User related functions - START*/\r\n    \r\n    function newUser(\r\n    string name,\r\n    uint aadharId,\r\n    uint phoneNum\r\n    ) public returns (uint userId) {\r\n        userCount++;\r\n        User u;\r\n        u.walletId = msg.sender;\r\n        u.name = name;\r\n        u.aadharId = aadharId;\r\n        u.phoneNum = phoneNum;\r\n        allUsers[userCount] = u;\r\n        users_walletId[msg.sender] = userCount; // userCount is the index\r\n        return userCount;\r\n    }\r\n    \r\n    function getUserByIndex(uint256 _index) constant returns (address walletId, string name, uint aadharId) {\r\n        return (allUsers[_index].walletId,\r\n                allUsers[_index].name,\r\n                allUsers[_index].aadharId);\r\n    }\r\n    function getUserByWalletId(address _walletId) constant returns (address walletId, string name, uint aadharId) {\r\n        uint256 userIndex = users_walletId[_walletId];\r\n        return (allUsers[userIndex].walletId,\r\n                allUsers[userIndex].name, \r\n                allUsers[userIndex].aadharId);\r\n    }\r\n    \r\n    function getUsersCount() constant returns (uint UsersCount) {\r\n        return userCount;\r\n    }\r\n    \r\n    /*User related functions - END */\r\n    \r\n    /*Requirement related functions - START*/\r\n    \r\n    function newRequirement(uint ethers, uint duration,string mortgage) returns (uint requirementId){\r\n        Requirement r;\r\n        r.borrowerWalletId = msg.sender;\r\n        r.ethers = ethers;\r\n        r.duration = duration;\r\n        r.mortgage = mortgage;\r\n        \r\n        requirementCount++;\r\n        allRequirements[requirementCount] = r;\r\n        \r\n        allUsers[users_walletId[msg.sender]].requirementCount++;\r\n        allUsers[users_walletId[msg.sender]].requirements[allUsers[users_walletId[msg.sender]].requirementCount] = r;\r\n    }\r\n    \r\n    function getRequirementsCount() constant returns (uint requirementId){// global requirement count \r\n        return requirementCount;\r\n    }\r\n    function getRequirementsCount(address walletId) constant returns (uint requirementId){ // requirement count for specific user\r\n        return allUsers[users_walletId[walletId]].requirementCount;\r\n    }\r\n    \r\n    // global requirement details\r\n    function getRequirement(uint requirementId) constant returns(address borrowerWalletId, uint ethers, uint duration, string mortgage, uint proposalCount){\r\n        return (\r\n            allRequirements[requirementId].borrowerWalletId,\r\n            allRequirements[requirementId].ethers,\r\n            allRequirements[requirementId].duration,\r\n            allRequirements[requirementId].mortgage,\r\n            allRequirements[requirementId].proposalCount\r\n            );\r\n    }\r\n    \r\n    // Users speific requirement details\r\n    function getRequirement(address walletId, uint requirementId) constant returns(address borrowerWalletId, uint ethers, uint duration, string mortgage, uint proposalCount){\r\n        return (\r\n            allUsers[users_walletId[walletId]].requirements[requirementId].borrowerWalletId,\r\n            allUsers[users_walletId[walletId]].requirements[requirementId].ethers,\r\n            allUsers[users_walletId[walletId]].requirements[requirementId].duration,\r\n            allUsers[users_walletId[walletId]].requirements[requirementId].mortgage,\r\n            allUsers[users_walletId[walletId]].requirements[requirementId].proposalCount\r\n            );\r\n    }\r\n    function getRequirementStatus(uint requirementId) constant returns(uint requirementStatus){\r\n        return (\r\n            allRequirements[requirementId].requirementStatus\r\n            );\r\n    }\r\n    function getRequirementStatus(address walletId, uint requirementId) constant returns(uint requirementStatus){\r\n        return (\r\n            allUsers[users_walletId[walletId]].requirements[requirementId].requirementStatus\r\n            );\r\n    }\r\n\r\n    /* Requirement related functions - END */\r\n\r\n    /* Proposal related functions - START */\r\n\r\n//with global requirement Id\r\n    function newProposal(uint requirementId, uint startTime, uint endTime, uint interestEthers) returns (uint proposalId_user,uint proposalId_requirement){\r\n        Proposal p;\r\n        // p.requirementId = requirementId;\r\n        p.lenderWalletId = msg.sender;\r\n        p.startTime = startTime;\r\n        p.endTime = endTime;\r\n        p.interestEthers = interestEthers;\r\n        \r\n        allUsers[users_walletId[msg.sender]].proposalCount++;\r\n        allUsers[users_walletId[msg.sender]].proposals[allUsers[users_walletId[msg.sender]].proposalCount] = p;\r\n        \r\n        allRequirements[requirementId].proposalCount++;\r\n        allRequirements[requirementId].proposals[allRequirements[requirementId].proposalCount] = p;\r\n    }\r\n\r\n//with user specific requirement Id\r\n    function newProposal(address walletId, uint requirementId, uint startTime, uint endTime, uint interestEthers) returns (uint proposalId_user,uint proposalId_requirement){\r\n        Proposal p;\r\n        // p.requirementId = requirementId;\r\n        p.lenderWalletId = msg.sender;\r\n        p.startTime = startTime;\r\n        p.endTime = endTime;\r\n        p.interestEthers = interestEthers;\r\n        \r\n        allUsers[users_walletId[msg.sender]].proposalCount++;\r\n        allUsers[users_walletId[msg.sender]].proposals[allUsers[users_walletId[msg.sender]].proposalCount] = p;\r\n        \r\n        allUsers[users_walletId[walletId]].requirements[requirementId].proposalCount++;\r\n        allUsers[users_walletId[walletId]].requirements[requirementId].proposals[allUsers[users_walletId[walletId]].requirements[requirementId].proposalCount] = p;\r\n    }\r\n\r\n    \r\n    function getProposalCount(uint requirementId) constant returns (uint proposalCount){\r\n        return allRequirements[requirementId].proposalCount;\r\n    }\r\n    \r\n    function getProposalCount(address walletId, uint requirementId) constant returns (uint proposalCount){\r\n        return allUsers[users_walletId[walletId]].requirements[requirementId].proposalCount;\r\n    }\r\n    function getProposal(uint requirementId, uint proposalId) constant returns (\r\n        address lenderWalletId,\r\n        uint startTime,\r\n        uint endTime,\r\n        uint interestEthers){\r\n            return (\r\n                allRequirements[requirementId].proposals[proposalId].lenderWalletId,\r\n                allRequirements[requirementId].proposals[proposalId].startTime,\r\n                allRequirements[requirementId].proposals[proposalId].endTime,\r\n                allRequirements[requirementId].proposals[proposalId].interestEthers\r\n            );\r\n        }\r\n    function getProposal(address walletId, uint requirementId, uint proposalId) constant returns (\r\n        address lenderWalletId,\r\n        uint startTime,\r\n        uint endTime,\r\n        uint interestEthers){\r\n            return (\r\n                allUsers[users_walletId[walletId]].requirements[requirementId].proposals[proposalId].lenderWalletId,\r\n                allUsers[users_walletId[walletId]].requirements[requirementId].proposals[proposalId].startTime,\r\n                allUsers[users_walletId[walletId]].requirements[requirementId].proposals[proposalId].endTime,\r\n                allUsers[users_walletId[walletId]].requirements[requirementId].proposals[proposalId].interestEthers\r\n            );\r\n        }\r\n    //send user specific requirementId\r\n    function acceptProposal(uint requirementId, uint proposalId){\r\n        if(allUsers[users_walletId[msg.sender]].requirements[requirementId].borrowerWalletId == msg.sender && proposalId <= allUsers[users_walletId[msg.sender]].requirements[requirementId].proposalCount){\r\n            allUsers[users_walletId[msg.sender]].requirements[requirementId].proposalId = proposalId;\r\n            allUsers[users_walletId[msg.sender]].requirements[requirementId].borrowerWalletId.transfer(allUsers[users_walletId[msg.sender]].requirements[requirementId].ethers);\r\n        }\r\n    }\r\n    // function acceptProposal(uint requirementId, uint proposalId){\r\n    //     if(allRequirements[requirementId].borrowerWalletId == msg.sender && proposalId <= allRequirements[requirementId].proposalCount){\r\n    //         allRequirements[requirementId].proposalId = proposalId;\r\n    //     }\r\n    // }\r\n    \r\n    //send user specific requirementId\r\n    function repay(uint requirementId, uint proposalId){\r\n        // if(){\r\n            allUsers[users_walletId[msg.sender]].requirements[requirementId].proposals[proposalId].lenderWalletId.transfer(msg.value);\r\n            allUsers[users_walletId[msg.sender]].requirements[requirementId].requirementStatus = 1;\r\n        // }\r\n    }\r\n    \r\n    /* Proposal related functions - END */\r\n}\r\n\r\n\r\n\r\n",
  "sourcePath": "D:\\HariProjects\\Blockchain\\Techgig\\transfers\\contracts\\AlloyCoin.sol",
  "compiler": {
    "name": "solc",
    "version": "0.4.23+commit.124ca40d.Emscripten.clang"
  },
  "schemaVersion": "2.0.0",
  "updatedAt": "2018-06-06T03:46:34.379Z"
}